{
	"FundMe.sol": {
		"FundMe": {
			"abi": [
				{
					"inputs": [
						{
							"internalType": "address",
							"name": "funder",
							"type": "address"
						}
					],
					"name": "addressToAmountFunded",
					"outputs": [
						{
							"internalType": "uint256",
							"name": "amountFunded",
							"type": "uint256"
						}
					],
					"stateMutability": "view",
					"type": "function"
				},
				{
					"inputs": [],
					"name": "fund",
					"outputs": [],
					"stateMutability": "payable",
					"type": "function"
				},
				{
					"inputs": [
						{
							"internalType": "uint256",
							"name": "",
							"type": "uint256"
						}
					],
					"name": "funders",
					"outputs": [
						{
							"internalType": "address",
							"name": "",
							"type": "address"
						}
					],
					"stateMutability": "view",
					"type": "function"
				},
				{
					"inputs": [],
					"name": "withdraw",
					"outputs": [],
					"stateMutability": "nonpayable",
					"type": "function"
				}
			],
			"devdoc": {
				"kind": "dev",
				"methods": {},
				"version": 1
			},
			"evm": {
				"assembly": "    /* \"FundMe.sol\":62:853  contract FundMe {... */\n  mstore(0x40, 0x80)\n    /* \"FundMe.sol\":106:107  5 */\n  0x05\n    /* \"FundMe.sol\":85:107  uint256 minimumUSD = 5 */\n  0x00\n  sstore\n    /* \"FundMe.sol\":62:853  contract FundMe {... */\n  callvalue\n  dup1\n  iszero\n  tag_1\n  jumpi\n  0x00\n  dup1\n  revert\ntag_1:\n  pop\n  dataSize(sub_0)\n  dup1\n  dataOffset(sub_0)\n  0x00\n  codecopy\n  0x00\n  return\nstop\n\nsub_0: assembly {\n        /* \"FundMe.sol\":62:853  contract FundMe {... */\n      mstore(0x40, 0x80)\n      jumpi(tag_1, lt(calldatasize, 0x04))\n      shr(0xe0, calldataload(0x00))\n      dup1\n      0x3ccfd60b\n      eq\n      tag_2\n      jumpi\n      dup1\n      0x3e47d6f3\n      eq\n      tag_3\n      jumpi\n      dup1\n      0xb60d4288\n      eq\n      tag_4\n      jumpi\n      dup1\n      0xdc0d3dff\n      eq\n      tag_5\n      jumpi\n    tag_1:\n      0x00\n      dup1\n      revert\n        /* \"FundMe.sol\":441:850  function withdraw() public {... */\n    tag_2:\n      callvalue\n      dup1\n      iszero\n      tag_6\n      jumpi\n      0x00\n      dup1\n      revert\n    tag_6:\n      pop\n      tag_7\n      tag_8\n      jump\t// in\n    tag_7:\n      stop\n        /* \"FundMe.sol\":149:225  mapping(address funder => uint256 amountFunded) public addressToAmountFunded */\n    tag_3:\n      callvalue\n      dup1\n      iszero\n      tag_9\n      jumpi\n      0x00\n      dup1\n      revert\n    tag_9:\n      pop\n      tag_10\n      0x04\n      dup1\n      calldatasize\n      sub\n      dup2\n      add\n      swap1\n      tag_11\n      swap2\n      swap1\n      tag_12\n      jump\t// in\n    tag_11:\n      tag_13\n      jump\t// in\n    tag_10:\n      mload(0x40)\n      tag_14\n      swap2\n      swap1\n      tag_15\n      jump\t// in\n    tag_14:\n      mload(0x40)\n      dup1\n      swap2\n      sub\n      swap1\n      return\n        /* \"FundMe.sol\":234:433  function fund() public payable {... */\n    tag_4:\n      tag_16\n      tag_17\n      jump\t// in\n    tag_16:\n      stop\n        /* \"FundMe.sol\":116:140  address[] public funders */\n    tag_5:\n      callvalue\n      dup1\n      iszero\n      tag_18\n      jumpi\n      0x00\n      dup1\n      revert\n    tag_18:\n      pop\n      tag_19\n      0x04\n      dup1\n      calldatasize\n      sub\n      dup2\n      add\n      swap1\n      tag_20\n      swap2\n      swap1\n      tag_21\n      jump\t// in\n    tag_20:\n      tag_22\n      jump\t// in\n    tag_19:\n      mload(0x40)\n      tag_23\n      swap2\n      swap1\n      tag_24\n      jump\t// in\n    tag_23:\n      mload(0x40)\n      dup1\n      swap2\n      sub\n      swap1\n      return\n        /* \"FundMe.sol\":441:850  function withdraw() public {... */\n    tag_8:\n        /* \"FundMe.sol\":484:503  uint256 funderIndex */\n      0x00\n        /* \"FundMe.sol\":479:666  for (uint256 funderIndex = 0; funderIndex < funders.length; funderIndex++) {... */\n    tag_26:\n        /* \"FundMe.sol\":523:530  funders */\n      0x01\n        /* \"FundMe.sol\":523:537  funders.length */\n      dup1\n      sload\n      swap1\n      pop\n        /* \"FundMe.sol\":509:520  funderIndex */\n      dup2\n        /* \"FundMe.sol\":509:537  funderIndex < funders.length */\n      lt\n        /* \"FundMe.sol\":479:666  for (uint256 funderIndex = 0; funderIndex < funders.length; funderIndex++) {... */\n      iszero\n      tag_27\n      jumpi\n        /* \"FundMe.sol\":569:583  address funder */\n      0x00\n        /* \"FundMe.sol\":586:593  funders */\n      0x01\n        /* \"FundMe.sol\":594:605  funderIndex */\n      dup3\n        /* \"FundMe.sol\":586:606  funders[funderIndex] */\n      dup2\n      sload\n      dup2\n      lt\n      tag_29\n      jumpi\n      tag_30\n      tag_31\n      jump\t// in\n    tag_30:\n    tag_29:\n      swap1\n      0x00\n      mstore\n      keccak256(0x00, 0x20)\n      add\n      0x00\n      swap1\n      sload\n      swap1\n      0x0100\n      exp\n      swap1\n      div\n      0xffffffffffffffffffffffffffffffffffffffff\n      and\n        /* \"FundMe.sol\":569:606  address funder = funders[funderIndex] */\n      swap1\n      pop\n        /* \"FundMe.sol\":653:654  0 */\n      0x00\n        /* \"FundMe.sol\":621:642  addressToAmountFunded */\n      0x02\n        /* \"FundMe.sol\":621:650  addressToAmountFunded[funder] */\n      0x00\n        /* \"FundMe.sol\":643:649  funder */\n      dup4\n        /* \"FundMe.sol\":621:650  addressToAmountFunded[funder] */\n      0xffffffffffffffffffffffffffffffffffffffff\n      and\n      0xffffffffffffffffffffffffffffffffffffffff\n      and\n      dup2\n      mstore\n      0x20\n      add\n      swap1\n      dup2\n      mstore\n      0x20\n      add\n      0x00\n      keccak256\n        /* \"FundMe.sol\":621:654  addressToAmountFunded[funder] = 0 */\n      dup2\n      swap1\n      sstore\n      pop\n        /* \"FundMe.sol\":554:666  {... */\n      pop\n        /* \"FundMe.sol\":539:552  funderIndex++ */\n      dup1\n      dup1\n      0x01\n      add\n      swap2\n      pop\n      pop\n        /* \"FundMe.sol\":479:666  for (uint256 funderIndex = 0; funderIndex < funders.length; funderIndex++) {... */\n      jump(tag_26)\n    tag_27:\n      pop\n        /* \"FundMe.sol\":700:701  0 */\n      0x00\n        /* \"FundMe.sol\":686:702  new address[](0) */\n      0xffffffffffffffff\n      dup2\n      gt\n      iszero\n      tag_33\n      jumpi\n      tag_34\n      tag_35\n      jump\t// in\n    tag_34:\n    tag_33:\n      mload(0x40)\n      swap1\n      dup1\n      dup3\n      mstore\n      dup1\n      0x20\n      mul\n      0x20\n      add\n      dup3\n      add\n      0x40\n      mstore\n      dup1\n      iszero\n      tag_36\n      jumpi\n      dup2\n      0x20\n      add\n      0x20\n      dup3\n      mul\n      dup1\n      calldatasize\n      dup4\n      calldatacopy\n      dup1\n      dup3\n      add\n      swap2\n      pop\n      pop\n      swap1\n      pop\n    tag_36:\n      pop\n        /* \"FundMe.sol\":676:683  funders */\n      0x01\n        /* \"FundMe.sol\":676:702  funders = new address[](0) */\n      swap1\n      dup1\n      mload\n      swap1\n      0x20\n      add\n      swap1\n      tag_37\n      swap3\n      swap2\n      swap1\n      tag_38\n      jump\t// in\n    tag_37:\n      pop\n        /* \"FundMe.sol\":716:732  bool callSuccess */\n      0x00\n        /* \"FundMe.sol\":746:756  msg.sender */\n      caller\n        /* \"FundMe.sol\":738:762  payable(msg.sender).call */\n      0xffffffffffffffffffffffffffffffffffffffff\n      and\n        /* \"FundMe.sol\":770:791  address(this).balance */\n      selfbalance\n        /* \"FundMe.sol\":738:796  payable(msg.sender).call{value: address(this).balance}(\"\") */\n      mload(0x40)\n      tag_39\n      swap1\n      tag_40\n      jump\t// in\n    tag_39:\n      0x00\n      mload(0x40)\n      dup1\n      dup4\n      sub\n      dup2\n      dup6\n      dup8\n      gas\n      call\n      swap3\n      pop\n      pop\n      pop\n      returndatasize\n      dup1\n      0x00\n      dup2\n      eq\n      tag_43\n      jumpi\n      mload(0x40)\n      swap2\n      pop\n      and(add(returndatasize, 0x3f), not(0x1f))\n      dup3\n      add\n      0x40\n      mstore\n      returndatasize\n      dup3\n      mstore\n      returndatasize\n      0x00\n      0x20\n      dup5\n      add\n      returndatacopy\n      jump(tag_42)\n    tag_43:\n      0x60\n      swap2\n      pop\n    tag_42:\n      pop\n        /* \"FundMe.sol\":715:796  (bool callSuccess, ) = payable(msg.sender).call{value: address(this).balance}(\"\") */\n      pop\n      swap1\n      pop\n        /* \"FundMe.sol\":815:826  callSuccess */\n      dup1\n        /* \"FundMe.sol\":807:842  require(callSuccess, \"Call Failed\") */\n      tag_44\n      jumpi\n      mload(0x40)\n      0x08c379a000000000000000000000000000000000000000000000000000000000\n      dup2\n      mstore\n      0x04\n      add\n      tag_45\n      swap1\n      tag_46\n      jump\t// in\n    tag_45:\n      mload(0x40)\n      dup1\n      swap2\n      sub\n      swap1\n      revert\n    tag_44:\n        /* \"FundMe.sol\":468:850  {... */\n      pop\n        /* \"FundMe.sol\":441:850  function withdraw() public {... */\n      jump\t// out\n        /* \"FundMe.sol\":149:225  mapping(address funder => uint256 amountFunded) public addressToAmountFunded */\n    tag_13:\n      mstore(0x20, 0x02)\n      dup1\n      0x00\n      mstore\n      keccak256(0x00, 0x40)\n      0x00\n      swap2\n      pop\n      swap1\n      pop\n      sload\n      dup2\n      jump\t// out\n        /* \"FundMe.sol\":234:433  function fund() public payable {... */\n    tag_17:\n        /* \"FundMe.sol\":296:306  minimumUSD */\n      sload(0x00)\n        /* \"FundMe.sol\":284:293  msg.value */\n      callvalue\n        /* \"FundMe.sol\":284:306  msg.value > minimumUSD */\n      gt\n        /* \"FundMe.sol\":276:333  require(msg.value > minimumUSD, \"Didn't send enough ETH\") */\n      tag_48\n      jumpi\n      mload(0x40)\n      0x08c379a000000000000000000000000000000000000000000000000000000000\n      dup2\n      mstore\n      0x04\n      add\n      tag_49\n      swap1\n      tag_50\n      jump\t// in\n    tag_49:\n      mload(0x40)\n      dup1\n      swap2\n      sub\n      swap1\n      revert\n    tag_48:\n        /* \"FundMe.sol\":344:351  funders */\n      0x01\n        /* \"FundMe.sol\":357:367  msg.sender */\n      caller\n        /* \"FundMe.sol\":344:368  funders.push(msg.sender) */\n      swap1\n      dup1\n      0x01\n      dup2\n      sload\n      add\n      dup1\n      dup3\n      sstore\n      dup1\n      swap2\n      pop\n      pop\n      0x01\n      swap1\n      sub\n      swap1\n      0x00\n      mstore\n      keccak256(0x00, 0x20)\n      add\n      0x00\n      swap1\n      swap2\n      swap1\n      swap2\n      swap1\n      swap2\n      0x0100\n      exp\n      dup2\n      sload\n      dup2\n      0xffffffffffffffffffffffffffffffffffffffff\n      mul\n      not\n      and\n      swap1\n      dup4\n      0xffffffffffffffffffffffffffffffffffffffff\n      and\n      mul\n      or\n      swap1\n      sstore\n      pop\n        /* \"FundMe.sol\":416:425  msg.value */\n      callvalue\n        /* \"FundMe.sol\":379:400  addressToAmountFunded */\n      0x02\n        /* \"FundMe.sol\":379:412  addressToAmountFunded[msg.sender] */\n      0x00\n        /* \"FundMe.sol\":401:411  msg.sender */\n      caller\n        /* \"FundMe.sol\":379:412  addressToAmountFunded[msg.sender] */\n      0xffffffffffffffffffffffffffffffffffffffff\n      and\n      0xffffffffffffffffffffffffffffffffffffffff\n      and\n      dup2\n      mstore\n      0x20\n      add\n      swap1\n      dup2\n      mstore\n      0x20\n      add\n      0x00\n      keccak256\n      0x00\n        /* \"FundMe.sol\":379:425  addressToAmountFunded[msg.sender] += msg.value */\n      dup3\n      dup3\n      sload\n      tag_52\n      swap2\n      swap1\n      tag_53\n      jump\t// in\n    tag_52:\n      swap3\n      pop\n      pop\n      dup2\n      swap1\n      sstore\n      pop\n        /* \"FundMe.sol\":234:433  function fund() public payable {... */\n      jump\t// out\n        /* \"FundMe.sol\":116:140  address[] public funders */\n    tag_22:\n      0x01\n      dup2\n      dup2\n      sload\n      dup2\n      lt\n      tag_54\n      jumpi\n      0x00\n      dup1\n      revert\n    tag_54:\n      swap1\n      0x00\n      mstore\n      keccak256(0x00, 0x20)\n      add\n      0x00\n      swap2\n      pop\n      sload\n      swap1\n      0x0100\n      exp\n      swap1\n      div\n      0xffffffffffffffffffffffffffffffffffffffff\n      and\n      dup2\n      jump\t// out\n    tag_38:\n      dup3\n      dup1\n      sload\n      dup3\n      dup3\n      sstore\n      swap1\n      0x00\n      mstore\n      keccak256(0x00, 0x20)\n      swap1\n      dup2\n      add\n      swap3\n      dup3\n      iszero\n      tag_56\n      jumpi\n      swap2\n      0x20\n      mul\n      dup3\n      add\n    tag_57:\n      dup3\n      dup2\n      gt\n      iszero\n      tag_58\n      jumpi\n      dup3\n      mload\n      dup3\n      exp(0x0100, 0x00)\n      dup2\n      sload\n      dup2\n      0xffffffffffffffffffffffffffffffffffffffff\n      mul\n      not\n      and\n      swap1\n      dup4\n      0xffffffffffffffffffffffffffffffffffffffff\n      and\n      mul\n      or\n      swap1\n      sstore\n      pop\n      swap2\n      0x20\n      add\n      swap2\n      swap1\n      0x01\n      add\n      swap1\n      jump(tag_57)\n    tag_58:\n    tag_56:\n      pop\n      swap1\n      pop\n      tag_59\n      swap2\n      swap1\n      tag_60\n      jump\t// in\n    tag_59:\n      pop\n      swap1\n      jump\t// out\n    tag_60:\n    tag_61:\n      dup1\n      dup3\n      gt\n      iszero\n      tag_62\n      jumpi\n      0x00\n      dup2\n      0x00\n      swap1\n      sstore\n      pop\n      0x01\n      add\n      jump(tag_61)\n    tag_62:\n      pop\n      swap1\n      jump\t// out\n        /* \"#utility.yul\":88:205   */\n    tag_64:\n        /* \"#utility.yul\":197:198   */\n      0x00\n        /* \"#utility.yul\":194:195   */\n      dup1\n        /* \"#utility.yul\":187:199   */\n      revert\n        /* \"#utility.yul\":334:460   */\n    tag_66:\n        /* \"#utility.yul\":371:378   */\n      0x00\n        /* \"#utility.yul\":411:453   */\n      0xffffffffffffffffffffffffffffffffffffffff\n        /* \"#utility.yul\":404:409   */\n      dup3\n        /* \"#utility.yul\":400:454   */\n      and\n        /* \"#utility.yul\":389:454   */\n      swap1\n      pop\n        /* \"#utility.yul\":334:460   */\n      swap2\n      swap1\n      pop\n      jump\t// out\n        /* \"#utility.yul\":466:562   */\n    tag_67:\n        /* \"#utility.yul\":503:510   */\n      0x00\n        /* \"#utility.yul\":532:556   */\n      tag_90\n        /* \"#utility.yul\":550:555   */\n      dup3\n        /* \"#utility.yul\":532:556   */\n      tag_66\n      jump\t// in\n    tag_90:\n        /* \"#utility.yul\":521:556   */\n      swap1\n      pop\n        /* \"#utility.yul\":466:562   */\n      swap2\n      swap1\n      pop\n      jump\t// out\n        /* \"#utility.yul\":568:690   */\n    tag_68:\n        /* \"#utility.yul\":641:665   */\n      tag_92\n        /* \"#utility.yul\":659:664   */\n      dup2\n        /* \"#utility.yul\":641:665   */\n      tag_67\n      jump\t// in\n    tag_92:\n        /* \"#utility.yul\":634:639   */\n      dup2\n        /* \"#utility.yul\":631:666   */\n      eq\n        /* \"#utility.yul\":621:684   */\n      tag_93\n      jumpi\n        /* \"#utility.yul\":680:681   */\n      0x00\n        /* \"#utility.yul\":677:678   */\n      dup1\n        /* \"#utility.yul\":670:682   */\n      revert\n        /* \"#utility.yul\":621:684   */\n    tag_93:\n        /* \"#utility.yul\":568:690   */\n      pop\n      jump\t// out\n        /* \"#utility.yul\":696:835   */\n    tag_69:\n        /* \"#utility.yul\":742:747   */\n      0x00\n        /* \"#utility.yul\":780:786   */\n      dup2\n        /* \"#utility.yul\":767:787   */\n      calldataload\n        /* \"#utility.yul\":758:787   */\n      swap1\n      pop\n        /* \"#utility.yul\":796:829   */\n      tag_95\n        /* \"#utility.yul\":823:828   */\n      dup2\n        /* \"#utility.yul\":796:829   */\n      tag_68\n      jump\t// in\n    tag_95:\n        /* \"#utility.yul\":696:835   */\n      swap3\n      swap2\n      pop\n      pop\n      jump\t// out\n        /* \"#utility.yul\":841:1170   */\n    tag_12:\n        /* \"#utility.yul\":900:906   */\n      0x00\n        /* \"#utility.yul\":949:951   */\n      0x20\n        /* \"#utility.yul\":937:946   */\n      dup3\n        /* \"#utility.yul\":928:935   */\n      dup5\n        /* \"#utility.yul\":924:947   */\n      sub\n        /* \"#utility.yul\":920:952   */\n      slt\n        /* \"#utility.yul\":917:1036   */\n      iszero\n      tag_97\n      jumpi\n        /* \"#utility.yul\":955:1034   */\n      tag_98\n      tag_64\n      jump\t// in\n    tag_98:\n        /* \"#utility.yul\":917:1036   */\n    tag_97:\n        /* \"#utility.yul\":1075:1076   */\n      0x00\n        /* \"#utility.yul\":1100:1153   */\n      tag_99\n        /* \"#utility.yul\":1145:1152   */\n      dup5\n        /* \"#utility.yul\":1136:1142   */\n      dup3\n        /* \"#utility.yul\":1125:1134   */\n      dup6\n        /* \"#utility.yul\":1121:1143   */\n      add\n        /* \"#utility.yul\":1100:1153   */\n      tag_69\n      jump\t// in\n    tag_99:\n        /* \"#utility.yul\":1090:1153   */\n      swap2\n      pop\n        /* \"#utility.yul\":1046:1163   */\n      pop\n        /* \"#utility.yul\":841:1170   */\n      swap3\n      swap2\n      pop\n      pop\n      jump\t// out\n        /* \"#utility.yul\":1176:1253   */\n    tag_70:\n        /* \"#utility.yul\":1213:1220   */\n      0x00\n        /* \"#utility.yul\":1242:1247   */\n      dup2\n        /* \"#utility.yul\":1231:1247   */\n      swap1\n      pop\n        /* \"#utility.yul\":1176:1253   */\n      swap2\n      swap1\n      pop\n      jump\t// out\n        /* \"#utility.yul\":1259:1377   */\n    tag_71:\n        /* \"#utility.yul\":1346:1370   */\n      tag_102\n        /* \"#utility.yul\":1364:1369   */\n      dup2\n        /* \"#utility.yul\":1346:1370   */\n      tag_70\n      jump\t// in\n    tag_102:\n        /* \"#utility.yul\":1341:1344   */\n      dup3\n        /* \"#utility.yul\":1334:1371   */\n      mstore\n        /* \"#utility.yul\":1259:1377   */\n      pop\n      pop\n      jump\t// out\n        /* \"#utility.yul\":1383:1605   */\n    tag_15:\n        /* \"#utility.yul\":1476:1480   */\n      0x00\n        /* \"#utility.yul\":1514:1516   */\n      0x20\n        /* \"#utility.yul\":1503:1512   */\n      dup3\n        /* \"#utility.yul\":1499:1517   */\n      add\n        /* \"#utility.yul\":1491:1517   */\n      swap1\n      pop\n        /* \"#utility.yul\":1527:1598   */\n      tag_104\n        /* \"#utility.yul\":1595:1596   */\n      0x00\n        /* \"#utility.yul\":1584:1593   */\n      dup4\n        /* \"#utility.yul\":1580:1597   */\n      add\n        /* \"#utility.yul\":1571:1577   */\n      dup5\n        /* \"#utility.yul\":1527:1598   */\n      tag_71\n      jump\t// in\n    tag_104:\n        /* \"#utility.yul\":1383:1605   */\n      swap3\n      swap2\n      pop\n      pop\n      jump\t// out\n        /* \"#utility.yul\":1611:1733   */\n    tag_72:\n        /* \"#utility.yul\":1684:1708   */\n      tag_106\n        /* \"#utility.yul\":1702:1707   */\n      dup2\n        /* \"#utility.yul\":1684:1708   */\n      tag_70\n      jump\t// in\n    tag_106:\n        /* \"#utility.yul\":1677:1682   */\n      dup2\n        /* \"#utility.yul\":1674:1709   */\n      eq\n        /* \"#utility.yul\":1664:1727   */\n      tag_107\n      jumpi\n        /* \"#utility.yul\":1723:1724   */\n      0x00\n        /* \"#utility.yul\":1720:1721   */\n      dup1\n        /* \"#utility.yul\":1713:1725   */\n      revert\n        /* \"#utility.yul\":1664:1727   */\n    tag_107:\n        /* \"#utility.yul\":1611:1733   */\n      pop\n      jump\t// out\n        /* \"#utility.yul\":1739:1878   */\n    tag_73:\n        /* \"#utility.yul\":1785:1790   */\n      0x00\n        /* \"#utility.yul\":1823:1829   */\n      dup2\n        /* \"#utility.yul\":1810:1830   */\n      calldataload\n        /* \"#utility.yul\":1801:1830   */\n      swap1\n      pop\n        /* \"#utility.yul\":1839:1872   */\n      tag_109\n        /* \"#utility.yul\":1866:1871   */\n      dup2\n        /* \"#utility.yul\":1839:1872   */\n      tag_72\n      jump\t// in\n    tag_109:\n        /* \"#utility.yul\":1739:1878   */\n      swap3\n      swap2\n      pop\n      pop\n      jump\t// out\n        /* \"#utility.yul\":1884:2213   */\n    tag_21:\n        /* \"#utility.yul\":1943:1949   */\n      0x00\n        /* \"#utility.yul\":1992:1994   */\n      0x20\n        /* \"#utility.yul\":1980:1989   */\n      dup3\n        /* \"#utility.yul\":1971:1978   */\n      dup5\n        /* \"#utility.yul\":1967:1990   */\n      sub\n        /* \"#utility.yul\":1963:1995   */\n      slt\n        /* \"#utility.yul\":1960:2079   */\n      iszero\n      tag_111\n      jumpi\n        /* \"#utility.yul\":1998:2077   */\n      tag_112\n      tag_64\n      jump\t// in\n    tag_112:\n        /* \"#utility.yul\":1960:2079   */\n    tag_111:\n        /* \"#utility.yul\":2118:2119   */\n      0x00\n        /* \"#utility.yul\":2143:2196   */\n      tag_113\n        /* \"#utility.yul\":2188:2195   */\n      dup5\n        /* \"#utility.yul\":2179:2185   */\n      dup3\n        /* \"#utility.yul\":2168:2177   */\n      dup6\n        /* \"#utility.yul\":2164:2186   */\n      add\n        /* \"#utility.yul\":2143:2196   */\n      tag_73\n      jump\t// in\n    tag_113:\n        /* \"#utility.yul\":2133:2196   */\n      swap2\n      pop\n        /* \"#utility.yul\":2089:2206   */\n      pop\n        /* \"#utility.yul\":1884:2213   */\n      swap3\n      swap2\n      pop\n      pop\n      jump\t// out\n        /* \"#utility.yul\":2219:2337   */\n    tag_74:\n        /* \"#utility.yul\":2306:2330   */\n      tag_115\n        /* \"#utility.yul\":2324:2329   */\n      dup2\n        /* \"#utility.yul\":2306:2330   */\n      tag_67\n      jump\t// in\n    tag_115:\n        /* \"#utility.yul\":2301:2304   */\n      dup3\n        /* \"#utility.yul\":2294:2331   */\n      mstore\n        /* \"#utility.yul\":2219:2337   */\n      pop\n      pop\n      jump\t// out\n        /* \"#utility.yul\":2343:2565   */\n    tag_24:\n        /* \"#utility.yul\":2436:2440   */\n      0x00\n        /* \"#utility.yul\":2474:2476   */\n      0x20\n        /* \"#utility.yul\":2463:2472   */\n      dup3\n        /* \"#utility.yul\":2459:2477   */\n      add\n        /* \"#utility.yul\":2451:2477   */\n      swap1\n      pop\n        /* \"#utility.yul\":2487:2558   */\n      tag_117\n        /* \"#utility.yul\":2555:2556   */\n      0x00\n        /* \"#utility.yul\":2544:2553   */\n      dup4\n        /* \"#utility.yul\":2540:2557   */\n      add\n        /* \"#utility.yul\":2531:2537   */\n      dup5\n        /* \"#utility.yul\":2487:2558   */\n      tag_74\n      jump\t// in\n    tag_117:\n        /* \"#utility.yul\":2343:2565   */\n      swap3\n      swap2\n      pop\n      pop\n      jump\t// out\n        /* \"#utility.yul\":2571:2751   */\n    tag_31:\n        /* \"#utility.yul\":2619:2696   */\n      0x4e487b7100000000000000000000000000000000000000000000000000000000\n        /* \"#utility.yul\":2616:2617   */\n      0x00\n        /* \"#utility.yul\":2609:2697   */\n      mstore\n        /* \"#utility.yul\":2716:2720   */\n      0x32\n        /* \"#utility.yul\":2713:2714   */\n      0x04\n        /* \"#utility.yul\":2706:2721   */\n      mstore\n        /* \"#utility.yul\":2740:2744   */\n      0x24\n        /* \"#utility.yul\":2737:2738   */\n      0x00\n        /* \"#utility.yul\":2730:2745   */\n      revert\n        /* \"#utility.yul\":2757:2937   */\n    tag_35:\n        /* \"#utility.yul\":2805:2882   */\n      0x4e487b7100000000000000000000000000000000000000000000000000000000\n        /* \"#utility.yul\":2802:2803   */\n      0x00\n        /* \"#utility.yul\":2795:2883   */\n      mstore\n        /* \"#utility.yul\":2902:2906   */\n      0x41\n        /* \"#utility.yul\":2899:2900   */\n      0x04\n        /* \"#utility.yul\":2892:2907   */\n      mstore\n        /* \"#utility.yul\":2926:2930   */\n      0x24\n        /* \"#utility.yul\":2923:2924   */\n      0x00\n        /* \"#utility.yul\":2916:2931   */\n      revert\n        /* \"#utility.yul\":2943:3090   */\n    tag_75:\n        /* \"#utility.yul\":3044:3055   */\n      0x00\n        /* \"#utility.yul\":3081:3084   */\n      dup2\n        /* \"#utility.yul\":3066:3084   */\n      swap1\n      pop\n        /* \"#utility.yul\":2943:3090   */\n      swap3\n      swap2\n      pop\n      pop\n      jump\t// out\n        /* \"#utility.yul\":3096:3210   */\n    tag_76:\n      pop\n      jump\t// out\n        /* \"#utility.yul\":3216:3614   */\n    tag_77:\n        /* \"#utility.yul\":3375:3378   */\n      0x00\n        /* \"#utility.yul\":3396:3479   */\n      tag_123\n        /* \"#utility.yul\":3477:3478   */\n      0x00\n        /* \"#utility.yul\":3472:3475   */\n      dup4\n        /* \"#utility.yul\":3396:3479   */\n      tag_75\n      jump\t// in\n    tag_123:\n        /* \"#utility.yul\":3389:3479   */\n      swap2\n      pop\n        /* \"#utility.yul\":3488:3581   */\n      tag_124\n        /* \"#utility.yul\":3577:3580   */\n      dup3\n        /* \"#utility.yul\":3488:3581   */\n      tag_76\n      jump\t// in\n    tag_124:\n        /* \"#utility.yul\":3606:3607   */\n      0x00\n        /* \"#utility.yul\":3601:3604   */\n      dup3\n        /* \"#utility.yul\":3597:3608   */\n      add\n        /* \"#utility.yul\":3590:3608   */\n      swap1\n      pop\n        /* \"#utility.yul\":3216:3614   */\n      swap2\n      swap1\n      pop\n      jump\t// out\n        /* \"#utility.yul\":3620:3999   */\n    tag_40:\n        /* \"#utility.yul\":3804:3807   */\n      0x00\n        /* \"#utility.yul\":3826:3973   */\n      tag_126\n        /* \"#utility.yul\":3969:3972   */\n      dup3\n        /* \"#utility.yul\":3826:3973   */\n      tag_77\n      jump\t// in\n    tag_126:\n        /* \"#utility.yul\":3819:3973   */\n      swap2\n      pop\n        /* \"#utility.yul\":3990:3993   */\n      dup2\n        /* \"#utility.yul\":3983:3993   */\n      swap1\n      pop\n        /* \"#utility.yul\":3620:3999   */\n      swap2\n      swap1\n      pop\n      jump\t// out\n        /* \"#utility.yul\":4005:4174   */\n    tag_78:\n        /* \"#utility.yul\":4089:4100   */\n      0x00\n        /* \"#utility.yul\":4123:4129   */\n      dup3\n        /* \"#utility.yul\":4118:4121   */\n      dup3\n        /* \"#utility.yul\":4111:4130   */\n      mstore\n        /* \"#utility.yul\":4163:4167   */\n      0x20\n        /* \"#utility.yul\":4158:4161   */\n      dup3\n        /* \"#utility.yul\":4154:4168   */\n      add\n        /* \"#utility.yul\":4139:4168   */\n      swap1\n      pop\n        /* \"#utility.yul\":4005:4174   */\n      swap3\n      swap2\n      pop\n      pop\n      jump\t// out\n        /* \"#utility.yul\":4180:4341   */\n    tag_79:\n        /* \"#utility.yul\":4320:4333   */\n      0x43616c6c204661696c6564000000000000000000000000000000000000000000\n        /* \"#utility.yul\":4316:4317   */\n      0x00\n        /* \"#utility.yul\":4308:4314   */\n      dup3\n        /* \"#utility.yul\":4304:4318   */\n      add\n        /* \"#utility.yul\":4297:4334   */\n      mstore\n        /* \"#utility.yul\":4180:4341   */\n      pop\n      jump\t// out\n        /* \"#utility.yul\":4347:4713   */\n    tag_80:\n        /* \"#utility.yul\":4489:4492   */\n      0x00\n        /* \"#utility.yul\":4510:4577   */\n      tag_130\n        /* \"#utility.yul\":4574:4576   */\n      0x0b\n        /* \"#utility.yul\":4569:4572   */\n      dup4\n        /* \"#utility.yul\":4510:4577   */\n      tag_78\n      jump\t// in\n    tag_130:\n        /* \"#utility.yul\":4503:4577   */\n      swap2\n      pop\n        /* \"#utility.yul\":4586:4679   */\n      tag_131\n        /* \"#utility.yul\":4675:4678   */\n      dup3\n        /* \"#utility.yul\":4586:4679   */\n      tag_79\n      jump\t// in\n    tag_131:\n        /* \"#utility.yul\":4704:4706   */\n      0x20\n        /* \"#utility.yul\":4699:4702   */\n      dup3\n        /* \"#utility.yul\":4695:4707   */\n      add\n        /* \"#utility.yul\":4688:4707   */\n      swap1\n      pop\n        /* \"#utility.yul\":4347:4713   */\n      swap2\n      swap1\n      pop\n      jump\t// out\n        /* \"#utility.yul\":4719:5138   */\n    tag_46:\n        /* \"#utility.yul\":4885:4889   */\n      0x00\n        /* \"#utility.yul\":4923:4925   */\n      0x20\n        /* \"#utility.yul\":4912:4921   */\n      dup3\n        /* \"#utility.yul\":4908:4926   */\n      add\n        /* \"#utility.yul\":4900:4926   */\n      swap1\n      pop\n        /* \"#utility.yul\":4972:4981   */\n      dup2\n        /* \"#utility.yul\":4966:4970   */\n      dup2\n        /* \"#utility.yul\":4962:4982   */\n      sub\n        /* \"#utility.yul\":4958:4959   */\n      0x00\n        /* \"#utility.yul\":4947:4956   */\n      dup4\n        /* \"#utility.yul\":4943:4960   */\n      add\n        /* \"#utility.yul\":4936:4983   */\n      mstore\n        /* \"#utility.yul\":5000:5131   */\n      tag_133\n        /* \"#utility.yul\":5126:5130   */\n      dup2\n        /* \"#utility.yul\":5000:5131   */\n      tag_80\n      jump\t// in\n    tag_133:\n        /* \"#utility.yul\":4992:5131   */\n      swap1\n      pop\n        /* \"#utility.yul\":4719:5138   */\n      swap2\n      swap1\n      pop\n      jump\t// out\n        /* \"#utility.yul\":5144:5316   */\n    tag_81:\n        /* \"#utility.yul\":5284:5308   */\n      0x4469646e27742073656e6420656e6f7567682045544800000000000000000000\n        /* \"#utility.yul\":5280:5281   */\n      0x00\n        /* \"#utility.yul\":5272:5278   */\n      dup3\n        /* \"#utility.yul\":5268:5282   */\n      add\n        /* \"#utility.yul\":5261:5309   */\n      mstore\n        /* \"#utility.yul\":5144:5316   */\n      pop\n      jump\t// out\n        /* \"#utility.yul\":5322:5688   */\n    tag_82:\n        /* \"#utility.yul\":5464:5467   */\n      0x00\n        /* \"#utility.yul\":5485:5552   */\n      tag_136\n        /* \"#utility.yul\":5549:5551   */\n      0x16\n        /* \"#utility.yul\":5544:5547   */\n      dup4\n        /* \"#utility.yul\":5485:5552   */\n      tag_78\n      jump\t// in\n    tag_136:\n        /* \"#utility.yul\":5478:5552   */\n      swap2\n      pop\n        /* \"#utility.yul\":5561:5654   */\n      tag_137\n        /* \"#utility.yul\":5650:5653   */\n      dup3\n        /* \"#utility.yul\":5561:5654   */\n      tag_81\n      jump\t// in\n    tag_137:\n        /* \"#utility.yul\":5679:5681   */\n      0x20\n        /* \"#utility.yul\":5674:5677   */\n      dup3\n        /* \"#utility.yul\":5670:5682   */\n      add\n        /* \"#utility.yul\":5663:5682   */\n      swap1\n      pop\n        /* \"#utility.yul\":5322:5688   */\n      swap2\n      swap1\n      pop\n      jump\t// out\n        /* \"#utility.yul\":5694:6113   */\n    tag_50:\n        /* \"#utility.yul\":5860:5864   */\n      0x00\n        /* \"#utility.yul\":5898:5900   */\n      0x20\n        /* \"#utility.yul\":5887:5896   */\n      dup3\n        /* \"#utility.yul\":5883:5901   */\n      add\n        /* \"#utility.yul\":5875:5901   */\n      swap1\n      pop\n        /* \"#utility.yul\":5947:5956   */\n      dup2\n        /* \"#utility.yul\":5941:5945   */\n      dup2\n        /* \"#utility.yul\":5937:5957   */\n      sub\n        /* \"#utility.yul\":5933:5934   */\n      0x00\n        /* \"#utility.yul\":5922:5931   */\n      dup4\n        /* \"#utility.yul\":5918:5935   */\n      add\n        /* \"#utility.yul\":5911:5958   */\n      mstore\n        /* \"#utility.yul\":5975:6106   */\n      tag_139\n        /* \"#utility.yul\":6101:6105   */\n      dup2\n        /* \"#utility.yul\":5975:6106   */\n      tag_82\n      jump\t// in\n    tag_139:\n        /* \"#utility.yul\":5967:6106   */\n      swap1\n      pop\n        /* \"#utility.yul\":5694:6113   */\n      swap2\n      swap1\n      pop\n      jump\t// out\n        /* \"#utility.yul\":6119:6299   */\n    tag_83:\n        /* \"#utility.yul\":6167:6244   */\n      0x4e487b7100000000000000000000000000000000000000000000000000000000\n        /* \"#utility.yul\":6164:6165   */\n      0x00\n        /* \"#utility.yul\":6157:6245   */\n      mstore\n        /* \"#utility.yul\":6264:6268   */\n      0x11\n        /* \"#utility.yul\":6261:6262   */\n      0x04\n        /* \"#utility.yul\":6254:6269   */\n      mstore\n        /* \"#utility.yul\":6288:6292   */\n      0x24\n        /* \"#utility.yul\":6285:6286   */\n      0x00\n        /* \"#utility.yul\":6278:6293   */\n      revert\n        /* \"#utility.yul\":6305:6496   */\n    tag_53:\n        /* \"#utility.yul\":6345:6348   */\n      0x00\n        /* \"#utility.yul\":6364:6384   */\n      tag_142\n        /* \"#utility.yul\":6382:6383   */\n      dup3\n        /* \"#utility.yul\":6364:6384   */\n      tag_70\n      jump\t// in\n    tag_142:\n        /* \"#utility.yul\":6359:6384   */\n      swap2\n      pop\n        /* \"#utility.yul\":6398:6418   */\n      tag_143\n        /* \"#utility.yul\":6416:6417   */\n      dup4\n        /* \"#utility.yul\":6398:6418   */\n      tag_70\n      jump\t// in\n    tag_143:\n        /* \"#utility.yul\":6393:6418   */\n      swap3\n      pop\n        /* \"#utility.yul\":6441:6442   */\n      dup3\n        /* \"#utility.yul\":6438:6439   */\n      dup3\n        /* \"#utility.yul\":6434:6443   */\n      add\n        /* \"#utility.yul\":6427:6443   */\n      swap1\n      pop\n        /* \"#utility.yul\":6462:6465   */\n      dup1\n        /* \"#utility.yul\":6459:6460   */\n      dup3\n        /* \"#utility.yul\":6456:6466   */\n      gt\n        /* \"#utility.yul\":6453:6489   */\n      iszero\n      tag_144\n      jumpi\n        /* \"#utility.yul\":6469:6487   */\n      tag_145\n      tag_83\n      jump\t// in\n    tag_145:\n        /* \"#utility.yul\":6453:6489   */\n    tag_144:\n        /* \"#utility.yul\":6305:6496   */\n      swap3\n      swap2\n      pop\n      pop\n      jump\t// out\n\n    auxdata: 0xa2646970667358221220619079ee69813fe09ed5102a1c52d28c7d79a83ea11f99874ee1f252a711d1d464736f6c63430008160033\n}\n",
				"bytecode": {
					"linkReferences": {},
					"object": "608060405260055f55348015610013575f80fd5b506107b5806100215f395ff3fe60806040526004361061003e575f3560e01c80633ccfd60b146100425780633e47d6f314610058578063b60d428814610094578063dc0d3dff1461009e575b5f80fd5b34801561004d575f80fd5b506100566100da565b005b348015610063575f80fd5b5061007e600480360381019061007991906104cb565b610283565b60405161008b919061050e565b60405180910390f35b61009c610298565b005b3480156100a9575f80fd5b506100c460048036038101906100bf9190610551565b610390565b6040516100d1919061058b565b60405180910390f35b5f5b600180549050811015610178575f600182815481106100fe576100fd6105a4565b5b905f5260205f20015f9054906101000a900473ffffffffffffffffffffffffffffffffffffffff1690505f60025f8373ffffffffffffffffffffffffffffffffffffffff1673ffffffffffffffffffffffffffffffffffffffff1681526020019081526020015f20819055505080806001019150506100dc565b505f67ffffffffffffffff811115610193576101926105d1565b5b6040519080825280602002602001820160405280156101c15781602001602082028036833780820191505090505b50600190805190602001906101d79291906103cb565b505f3373ffffffffffffffffffffffffffffffffffffffff16476040516101fd9061062b565b5f6040518083038185875af1925050503d805f8114610237576040519150601f19603f3d011682016040523d82523d5f602084013e61023c565b606091505b5050905080610280576040517f08c379a000000000000000000000000000000000000000000000000000000000815260040161027790610699565b60405180910390fd5b50565b6002602052805f5260405f205f915090505481565b5f5434116102db576040517f08c379a00000000000000000000000000000000000000000000000000000000081526004016102d290610701565b60405180910390fd5b600133908060018154018082558091505060019003905f5260205f20015f9091909190916101000a81548173ffffffffffffffffffffffffffffffffffffffff021916908373ffffffffffffffffffffffffffffffffffffffff1602179055503460025f3373ffffffffffffffffffffffffffffffffffffffff1673ffffffffffffffffffffffffffffffffffffffff1681526020019081526020015f205f828254610387919061074c565b92505081905550565b6001818154811061039f575f80fd5b905f5260205f20015f915054906101000a900473ffffffffffffffffffffffffffffffffffffffff1681565b828054828255905f5260205f20908101928215610441579160200282015b82811115610440578251825f6101000a81548173ffffffffffffffffffffffffffffffffffffffff021916908373ffffffffffffffffffffffffffffffffffffffff160217905550916020019190600101906103e9565b5b50905061044e9190610452565b5090565b5b80821115610469575f815f905550600101610453565b5090565b5f80fd5b5f73ffffffffffffffffffffffffffffffffffffffff82169050919050565b5f61049a82610471565b9050919050565b6104aa81610490565b81146104b4575f80fd5b50565b5f813590506104c5816104a1565b92915050565b5f602082840312156104e0576104df61046d565b5b5f6104ed848285016104b7565b91505092915050565b5f819050919050565b610508816104f6565b82525050565b5f6020820190506105215f8301846104ff565b92915050565b610530816104f6565b811461053a575f80fd5b50565b5f8135905061054b81610527565b92915050565b5f602082840312156105665761056561046d565b5b5f6105738482850161053d565b91505092915050565b61058581610490565b82525050565b5f60208201905061059e5f83018461057c565b92915050565b7f4e487b71000000000000000000000000000000000000000000000000000000005f52603260045260245ffd5b7f4e487b71000000000000000000000000000000000000000000000000000000005f52604160045260245ffd5b5f81905092915050565b50565b5f6106165f836105fe565b915061062182610608565b5f82019050919050565b5f6106358261060b565b9150819050919050565b5f82825260208201905092915050565b7f43616c6c204661696c65640000000000000000000000000000000000000000005f82015250565b5f610683600b8361063f565b915061068e8261064f565b602082019050919050565b5f6020820190508181035f8301526106b081610677565b9050919050565b7f4469646e27742073656e6420656e6f75676820455448000000000000000000005f82015250565b5f6106eb60168361063f565b91506106f6826106b7565b602082019050919050565b5f6020820190508181035f830152610718816106df565b9050919050565b7f4e487b71000000000000000000000000000000000000000000000000000000005f52601160045260245ffd5b5f610756826104f6565b9150610761836104f6565b92508282019050808211156107795761077861071f565b5b9291505056fea2646970667358221220619079ee69813fe09ed5102a1c52d28c7d79a83ea11f99874ee1f252a711d1d464736f6c63430008160033",
					"opcodes": "PUSH1 0x80 PUSH1 0x40 MSTORE PUSH1 0x5 PUSH0 SSTORE CALLVALUE DUP1 ISZERO PUSH2 0x13 JUMPI PUSH0 DUP1 REVERT JUMPDEST POP PUSH2 0x7B5 DUP1 PUSH2 0x21 PUSH0 CODECOPY PUSH0 RETURN INVALID PUSH1 0x80 PUSH1 0x40 MSTORE PUSH1 0x4 CALLDATASIZE LT PUSH2 0x3E JUMPI PUSH0 CALLDATALOAD PUSH1 0xE0 SHR DUP1 PUSH4 0x3CCFD60B EQ PUSH2 0x42 JUMPI DUP1 PUSH4 0x3E47D6F3 EQ PUSH2 0x58 JUMPI DUP1 PUSH4 0xB60D4288 EQ PUSH2 0x94 JUMPI DUP1 PUSH4 0xDC0D3DFF EQ PUSH2 0x9E JUMPI JUMPDEST PUSH0 DUP1 REVERT JUMPDEST CALLVALUE DUP1 ISZERO PUSH2 0x4D JUMPI PUSH0 DUP1 REVERT JUMPDEST POP PUSH2 0x56 PUSH2 0xDA JUMP JUMPDEST STOP JUMPDEST CALLVALUE DUP1 ISZERO PUSH2 0x63 JUMPI PUSH0 DUP1 REVERT JUMPDEST POP PUSH2 0x7E PUSH1 0x4 DUP1 CALLDATASIZE SUB DUP2 ADD SWAP1 PUSH2 0x79 SWAP2 SWAP1 PUSH2 0x4CB JUMP JUMPDEST PUSH2 0x283 JUMP JUMPDEST PUSH1 0x40 MLOAD PUSH2 0x8B SWAP2 SWAP1 PUSH2 0x50E JUMP JUMPDEST PUSH1 0x40 MLOAD DUP1 SWAP2 SUB SWAP1 RETURN JUMPDEST PUSH2 0x9C PUSH2 0x298 JUMP JUMPDEST STOP JUMPDEST CALLVALUE DUP1 ISZERO PUSH2 0xA9 JUMPI PUSH0 DUP1 REVERT JUMPDEST POP PUSH2 0xC4 PUSH1 0x4 DUP1 CALLDATASIZE SUB DUP2 ADD SWAP1 PUSH2 0xBF SWAP2 SWAP1 PUSH2 0x551 JUMP JUMPDEST PUSH2 0x390 JUMP JUMPDEST PUSH1 0x40 MLOAD PUSH2 0xD1 SWAP2 SWAP1 PUSH2 0x58B JUMP JUMPDEST PUSH1 0x40 MLOAD DUP1 SWAP2 SUB SWAP1 RETURN JUMPDEST PUSH0 JUMPDEST PUSH1 0x1 DUP1 SLOAD SWAP1 POP DUP2 LT ISZERO PUSH2 0x178 JUMPI PUSH0 PUSH1 0x1 DUP3 DUP2 SLOAD DUP2 LT PUSH2 0xFE JUMPI PUSH2 0xFD PUSH2 0x5A4 JUMP JUMPDEST JUMPDEST SWAP1 PUSH0 MSTORE PUSH1 0x20 PUSH0 KECCAK256 ADD PUSH0 SWAP1 SLOAD SWAP1 PUSH2 0x100 EXP SWAP1 DIV PUSH20 0xFFFFFFFFFFFFFFFFFFFFFFFFFFFFFFFFFFFFFFFF AND SWAP1 POP PUSH0 PUSH1 0x2 PUSH0 DUP4 PUSH20 0xFFFFFFFFFFFFFFFFFFFFFFFFFFFFFFFFFFFFFFFF AND PUSH20 0xFFFFFFFFFFFFFFFFFFFFFFFFFFFFFFFFFFFFFFFF AND DUP2 MSTORE PUSH1 0x20 ADD SWAP1 DUP2 MSTORE PUSH1 0x20 ADD PUSH0 KECCAK256 DUP2 SWAP1 SSTORE POP POP DUP1 DUP1 PUSH1 0x1 ADD SWAP2 POP POP PUSH2 0xDC JUMP JUMPDEST POP PUSH0 PUSH8 0xFFFFFFFFFFFFFFFF DUP2 GT ISZERO PUSH2 0x193 JUMPI PUSH2 0x192 PUSH2 0x5D1 JUMP JUMPDEST JUMPDEST PUSH1 0x40 MLOAD SWAP1 DUP1 DUP3 MSTORE DUP1 PUSH1 0x20 MUL PUSH1 0x20 ADD DUP3 ADD PUSH1 0x40 MSTORE DUP1 ISZERO PUSH2 0x1C1 JUMPI DUP2 PUSH1 0x20 ADD PUSH1 0x20 DUP3 MUL DUP1 CALLDATASIZE DUP4 CALLDATACOPY DUP1 DUP3 ADD SWAP2 POP POP SWAP1 POP JUMPDEST POP PUSH1 0x1 SWAP1 DUP1 MLOAD SWAP1 PUSH1 0x20 ADD SWAP1 PUSH2 0x1D7 SWAP3 SWAP2 SWAP1 PUSH2 0x3CB JUMP JUMPDEST POP PUSH0 CALLER PUSH20 0xFFFFFFFFFFFFFFFFFFFFFFFFFFFFFFFFFFFFFFFF AND SELFBALANCE PUSH1 0x40 MLOAD PUSH2 0x1FD SWAP1 PUSH2 0x62B JUMP JUMPDEST PUSH0 PUSH1 0x40 MLOAD DUP1 DUP4 SUB DUP2 DUP6 DUP8 GAS CALL SWAP3 POP POP POP RETURNDATASIZE DUP1 PUSH0 DUP2 EQ PUSH2 0x237 JUMPI PUSH1 0x40 MLOAD SWAP2 POP PUSH1 0x1F NOT PUSH1 0x3F RETURNDATASIZE ADD AND DUP3 ADD PUSH1 0x40 MSTORE RETURNDATASIZE DUP3 MSTORE RETURNDATASIZE PUSH0 PUSH1 0x20 DUP5 ADD RETURNDATACOPY PUSH2 0x23C JUMP JUMPDEST PUSH1 0x60 SWAP2 POP JUMPDEST POP POP SWAP1 POP DUP1 PUSH2 0x280 JUMPI PUSH1 0x40 MLOAD PUSH32 0x8C379A000000000000000000000000000000000000000000000000000000000 DUP2 MSTORE PUSH1 0x4 ADD PUSH2 0x277 SWAP1 PUSH2 0x699 JUMP JUMPDEST PUSH1 0x40 MLOAD DUP1 SWAP2 SUB SWAP1 REVERT JUMPDEST POP JUMP JUMPDEST PUSH1 0x2 PUSH1 0x20 MSTORE DUP1 PUSH0 MSTORE PUSH1 0x40 PUSH0 KECCAK256 PUSH0 SWAP2 POP SWAP1 POP SLOAD DUP2 JUMP JUMPDEST PUSH0 SLOAD CALLVALUE GT PUSH2 0x2DB JUMPI PUSH1 0x40 MLOAD PUSH32 0x8C379A000000000000000000000000000000000000000000000000000000000 DUP2 MSTORE PUSH1 0x4 ADD PUSH2 0x2D2 SWAP1 PUSH2 0x701 JUMP JUMPDEST PUSH1 0x40 MLOAD DUP1 SWAP2 SUB SWAP1 REVERT JUMPDEST PUSH1 0x1 CALLER SWAP1 DUP1 PUSH1 0x1 DUP2 SLOAD ADD DUP1 DUP3 SSTORE DUP1 SWAP2 POP POP PUSH1 0x1 SWAP1 SUB SWAP1 PUSH0 MSTORE PUSH1 0x20 PUSH0 KECCAK256 ADD PUSH0 SWAP1 SWAP2 SWAP1 SWAP2 SWAP1 SWAP2 PUSH2 0x100 EXP DUP2 SLOAD DUP2 PUSH20 0xFFFFFFFFFFFFFFFFFFFFFFFFFFFFFFFFFFFFFFFF MUL NOT AND SWAP1 DUP4 PUSH20 0xFFFFFFFFFFFFFFFFFFFFFFFFFFFFFFFFFFFFFFFF AND MUL OR SWAP1 SSTORE POP CALLVALUE PUSH1 0x2 PUSH0 CALLER PUSH20 0xFFFFFFFFFFFFFFFFFFFFFFFFFFFFFFFFFFFFFFFF AND PUSH20 0xFFFFFFFFFFFFFFFFFFFFFFFFFFFFFFFFFFFFFFFF AND DUP2 MSTORE PUSH1 0x20 ADD SWAP1 DUP2 MSTORE PUSH1 0x20 ADD PUSH0 KECCAK256 PUSH0 DUP3 DUP3 SLOAD PUSH2 0x387 SWAP2 SWAP1 PUSH2 0x74C JUMP JUMPDEST SWAP3 POP POP DUP2 SWAP1 SSTORE POP JUMP JUMPDEST PUSH1 0x1 DUP2 DUP2 SLOAD DUP2 LT PUSH2 0x39F JUMPI PUSH0 DUP1 REVERT JUMPDEST SWAP1 PUSH0 MSTORE PUSH1 0x20 PUSH0 KECCAK256 ADD PUSH0 SWAP2 POP SLOAD SWAP1 PUSH2 0x100 EXP SWAP1 DIV PUSH20 0xFFFFFFFFFFFFFFFFFFFFFFFFFFFFFFFFFFFFFFFF AND DUP2 JUMP JUMPDEST DUP3 DUP1 SLOAD DUP3 DUP3 SSTORE SWAP1 PUSH0 MSTORE PUSH1 0x20 PUSH0 KECCAK256 SWAP1 DUP2 ADD SWAP3 DUP3 ISZERO PUSH2 0x441 JUMPI SWAP2 PUSH1 0x20 MUL DUP3 ADD JUMPDEST DUP3 DUP2 GT ISZERO PUSH2 0x440 JUMPI DUP3 MLOAD DUP3 PUSH0 PUSH2 0x100 EXP DUP2 SLOAD DUP2 PUSH20 0xFFFFFFFFFFFFFFFFFFFFFFFFFFFFFFFFFFFFFFFF MUL NOT AND SWAP1 DUP4 PUSH20 0xFFFFFFFFFFFFFFFFFFFFFFFFFFFFFFFFFFFFFFFF AND MUL OR SWAP1 SSTORE POP SWAP2 PUSH1 0x20 ADD SWAP2 SWAP1 PUSH1 0x1 ADD SWAP1 PUSH2 0x3E9 JUMP JUMPDEST JUMPDEST POP SWAP1 POP PUSH2 0x44E SWAP2 SWAP1 PUSH2 0x452 JUMP JUMPDEST POP SWAP1 JUMP JUMPDEST JUMPDEST DUP1 DUP3 GT ISZERO PUSH2 0x469 JUMPI PUSH0 DUP2 PUSH0 SWAP1 SSTORE POP PUSH1 0x1 ADD PUSH2 0x453 JUMP JUMPDEST POP SWAP1 JUMP JUMPDEST PUSH0 DUP1 REVERT JUMPDEST PUSH0 PUSH20 0xFFFFFFFFFFFFFFFFFFFFFFFFFFFFFFFFFFFFFFFF DUP3 AND SWAP1 POP SWAP2 SWAP1 POP JUMP JUMPDEST PUSH0 PUSH2 0x49A DUP3 PUSH2 0x471 JUMP JUMPDEST SWAP1 POP SWAP2 SWAP1 POP JUMP JUMPDEST PUSH2 0x4AA DUP2 PUSH2 0x490 JUMP JUMPDEST DUP2 EQ PUSH2 0x4B4 JUMPI PUSH0 DUP1 REVERT JUMPDEST POP JUMP JUMPDEST PUSH0 DUP2 CALLDATALOAD SWAP1 POP PUSH2 0x4C5 DUP2 PUSH2 0x4A1 JUMP JUMPDEST SWAP3 SWAP2 POP POP JUMP JUMPDEST PUSH0 PUSH1 0x20 DUP3 DUP5 SUB SLT ISZERO PUSH2 0x4E0 JUMPI PUSH2 0x4DF PUSH2 0x46D JUMP JUMPDEST JUMPDEST PUSH0 PUSH2 0x4ED DUP5 DUP3 DUP6 ADD PUSH2 0x4B7 JUMP JUMPDEST SWAP2 POP POP SWAP3 SWAP2 POP POP JUMP JUMPDEST PUSH0 DUP2 SWAP1 POP SWAP2 SWAP1 POP JUMP JUMPDEST PUSH2 0x508 DUP2 PUSH2 0x4F6 JUMP JUMPDEST DUP3 MSTORE POP POP JUMP JUMPDEST PUSH0 PUSH1 0x20 DUP3 ADD SWAP1 POP PUSH2 0x521 PUSH0 DUP4 ADD DUP5 PUSH2 0x4FF JUMP JUMPDEST SWAP3 SWAP2 POP POP JUMP JUMPDEST PUSH2 0x530 DUP2 PUSH2 0x4F6 JUMP JUMPDEST DUP2 EQ PUSH2 0x53A JUMPI PUSH0 DUP1 REVERT JUMPDEST POP JUMP JUMPDEST PUSH0 DUP2 CALLDATALOAD SWAP1 POP PUSH2 0x54B DUP2 PUSH2 0x527 JUMP JUMPDEST SWAP3 SWAP2 POP POP JUMP JUMPDEST PUSH0 PUSH1 0x20 DUP3 DUP5 SUB SLT ISZERO PUSH2 0x566 JUMPI PUSH2 0x565 PUSH2 0x46D JUMP JUMPDEST JUMPDEST PUSH0 PUSH2 0x573 DUP5 DUP3 DUP6 ADD PUSH2 0x53D JUMP JUMPDEST SWAP2 POP POP SWAP3 SWAP2 POP POP JUMP JUMPDEST PUSH2 0x585 DUP2 PUSH2 0x490 JUMP JUMPDEST DUP3 MSTORE POP POP JUMP JUMPDEST PUSH0 PUSH1 0x20 DUP3 ADD SWAP1 POP PUSH2 0x59E PUSH0 DUP4 ADD DUP5 PUSH2 0x57C JUMP JUMPDEST SWAP3 SWAP2 POP POP JUMP JUMPDEST PUSH32 0x4E487B7100000000000000000000000000000000000000000000000000000000 PUSH0 MSTORE PUSH1 0x32 PUSH1 0x4 MSTORE PUSH1 0x24 PUSH0 REVERT JUMPDEST PUSH32 0x4E487B7100000000000000000000000000000000000000000000000000000000 PUSH0 MSTORE PUSH1 0x41 PUSH1 0x4 MSTORE PUSH1 0x24 PUSH0 REVERT JUMPDEST PUSH0 DUP2 SWAP1 POP SWAP3 SWAP2 POP POP JUMP JUMPDEST POP JUMP JUMPDEST PUSH0 PUSH2 0x616 PUSH0 DUP4 PUSH2 0x5FE JUMP JUMPDEST SWAP2 POP PUSH2 0x621 DUP3 PUSH2 0x608 JUMP JUMPDEST PUSH0 DUP3 ADD SWAP1 POP SWAP2 SWAP1 POP JUMP JUMPDEST PUSH0 PUSH2 0x635 DUP3 PUSH2 0x60B JUMP JUMPDEST SWAP2 POP DUP2 SWAP1 POP SWAP2 SWAP1 POP JUMP JUMPDEST PUSH0 DUP3 DUP3 MSTORE PUSH1 0x20 DUP3 ADD SWAP1 POP SWAP3 SWAP2 POP POP JUMP JUMPDEST PUSH32 0x43616C6C204661696C6564000000000000000000000000000000000000000000 PUSH0 DUP3 ADD MSTORE POP JUMP JUMPDEST PUSH0 PUSH2 0x683 PUSH1 0xB DUP4 PUSH2 0x63F JUMP JUMPDEST SWAP2 POP PUSH2 0x68E DUP3 PUSH2 0x64F JUMP JUMPDEST PUSH1 0x20 DUP3 ADD SWAP1 POP SWAP2 SWAP1 POP JUMP JUMPDEST PUSH0 PUSH1 0x20 DUP3 ADD SWAP1 POP DUP2 DUP2 SUB PUSH0 DUP4 ADD MSTORE PUSH2 0x6B0 DUP2 PUSH2 0x677 JUMP JUMPDEST SWAP1 POP SWAP2 SWAP1 POP JUMP JUMPDEST PUSH32 0x4469646E27742073656E6420656E6F7567682045544800000000000000000000 PUSH0 DUP3 ADD MSTORE POP JUMP JUMPDEST PUSH0 PUSH2 0x6EB PUSH1 0x16 DUP4 PUSH2 0x63F JUMP JUMPDEST SWAP2 POP PUSH2 0x6F6 DUP3 PUSH2 0x6B7 JUMP JUMPDEST PUSH1 0x20 DUP3 ADD SWAP1 POP SWAP2 SWAP1 POP JUMP JUMPDEST PUSH0 PUSH1 0x20 DUP3 ADD SWAP1 POP DUP2 DUP2 SUB PUSH0 DUP4 ADD MSTORE PUSH2 0x718 DUP2 PUSH2 0x6DF JUMP JUMPDEST SWAP1 POP SWAP2 SWAP1 POP JUMP JUMPDEST PUSH32 0x4E487B7100000000000000000000000000000000000000000000000000000000 PUSH0 MSTORE PUSH1 0x11 PUSH1 0x4 MSTORE PUSH1 0x24 PUSH0 REVERT JUMPDEST PUSH0 PUSH2 0x756 DUP3 PUSH2 0x4F6 JUMP JUMPDEST SWAP2 POP PUSH2 0x761 DUP4 PUSH2 0x4F6 JUMP JUMPDEST SWAP3 POP DUP3 DUP3 ADD SWAP1 POP DUP1 DUP3 GT ISZERO PUSH2 0x779 JUMPI PUSH2 0x778 PUSH2 0x71F JUMP JUMPDEST JUMPDEST SWAP3 SWAP2 POP POP JUMP INVALID LOG2 PUSH5 0x6970667358 0x22 SLT KECCAK256 PUSH2 0x9079 0xEE PUSH10 0x813FE09ED5102A1C52D2 DUP13 PUSH30 0x79A83EA11F99874EE1F252A711D1D464736F6C6343000816003300000000 "
				},
				"gasEstimates": {
					"creation": {
						"codeDepositCost": "394600",
						"executionCost": "22533",
						"totalCost": "417133"
					},
					"external": {
						"addressToAmountFunded(address)": "2802",
						"fund()": "infinite",
						"funders(uint256)": "4988",
						"withdraw()": "infinite"
					}
				},
				"methodIdentifiers": {
					"addressToAmountFunded(address)": "3e47d6f3",
					"fund()": "b60d4288",
					"funders(uint256)": "dc0d3dff",
					"withdraw()": "3ccfd60b"
				}
			},
			"storageLayout": {
				"storage": [
					{
						"astId": 4,
						"contract": "FundMe.sol:FundMe",
						"label": "minimumUSD",
						"offset": 0,
						"slot": "0",
						"type": "t_uint256"
					},
					{
						"astId": 7,
						"contract": "FundMe.sol:FundMe",
						"label": "funders",
						"offset": 0,
						"slot": "1",
						"type": "t_array(t_address)dyn_storage"
					},
					{
						"astId": 11,
						"contract": "FundMe.sol:FundMe",
						"label": "addressToAmountFunded",
						"offset": 0,
						"slot": "2",
						"type": "t_mapping(t_address,t_uint256)"
					}
				],
				"types": {
					"t_address": {
						"encoding": "inplace",
						"label": "address",
						"numberOfBytes": "20"
					},
					"t_array(t_address)dyn_storage": {
						"base": "t_address",
						"encoding": "dynamic_array",
						"label": "address[]",
						"numberOfBytes": "32"
					},
					"t_mapping(t_address,t_uint256)": {
						"encoding": "mapping",
						"key": "t_address",
						"label": "mapping(address => uint256)",
						"numberOfBytes": "32",
						"value": "t_uint256"
					},
					"t_uint256": {
						"encoding": "inplace",
						"label": "uint256",
						"numberOfBytes": "32"
					}
				}
			},
			"userdoc": {
				"kind": "user",
				"methods": {},
				"version": 1
			}
		}
	}
}